:1000000038C052C051C050C0BBC04EC04DC04CC023
:100010004BC04BC049C048C047C046C045C044C0A3
:1000200043C042C041C037C138C139C13AC13BC1E8
:100030003CC13DC13EC13FC140C14FC150C151C192
:1000400052C153C154C155C156C157C166C167C1E0
:1000500068C169C16AC16BC16CC16DC16EC16FC13C
:100060007CC17DC17EC17FC180C181C182C183C18C
:1000700084C111241FBECFE5D4E0DEBFCDBF10E0A8
:10008000A0E6B0E0E6E2F5E002C005900D92AC36E5
:10009000B107D9F720E0ACE6B0E001C01D92A5376A
:1000A000B207E1F70DD23DC2ABCF1F920F920FB650
:1000B0000F9211242F938F939F9380916E009091B4
:1000C0006F008130910541F184F4892B09F050C013
:1000D0008EEF82BB84B314BA88E084BB85B380738F
:1000E00085BBAB9A8091700039C08230910551F187
:1000F0000397F1F58EEF82BB84B314BA81E084BB21
:1001000085B3807385BBA89A8091730082BB1092DF
:100110006F0010926E002CC08EEF82BB84B314BAB5
:1001200084E084BB85B3807385BBAA9A80916D00FF
:1001300020E2829FC001112480728095909171000D
:1001400089230CC08EEF82BB84B314BA82E084BBD7
:1001500085B3807385BBA99A8091720082BB809120
:100160006E0090916F00019690936F0080936E00E7
:100170009F918F912F910F900FBE0F901F90189508
:100180001F920F920FB60F9211242F933F934F930C
:100190005F936F937F938F939F93AF93BF93EF93EF
:1001A000FF9380916600909167004ED080916D0022
:1001B00081111CC080916400909165004ED06091C7
:1001C00068007091690080916B0059D080916B003C
:1001D00081110CC0809162009091630047D06091C2
:1001E00068007091690080916A008BD080916D00E9
:1001F0008295880F807E80958F6D80937400FF912B
:10020000EF91BF91AF919F918F917F916F915F918E
:100210004F913F912F910F900FBE0F901F90189507
:100220008FEF81BB14BA80E385BB089519BE82E0CD
:1002300083BF89B7816089BF84E085BD88E082BDC6
:1002400089B7806489BF0895FC0190819F5F9837CA
:1002500010F49083089510820895FC0190819F5FAF
:100260009C3310F49083089510820895FC019081CE
:100270009F5F983110F49083089510820895DB01F8
:100280006AE043D1482F50E04A305105D0F4FA01DA
:10029000ED5EFF4F099481E211C08BE70FC088EA41
:1002A0000DC088E60BC082E709C084E607C084E27F
:1002B00005C089E703C080E201C080E612968C93F6
:1002C0001297492F50E0FA013197E930F10518F4FF
:1002D000E35EFF4F099481E211C08BE70FC088EA0B
:1002E0000DC088E60BC082E709C084E607C084E23F
:1002F00005C089E703C080E201C080E613968C93B5
:100300000895DB016AE001D1482F50E04A305105E1
:10031000C0F4FA01EA5DFF4F099481E211C08BE756
:100320000FC088EA0DC088E60BC082E709C084E6EA
:1003300007C084E205C089E703C080E201C080E60F
:100340008C93492F50E0FA013197E930F10518F408
:10035000E05DFF4F099481E211C08BE70FC088EA8E
:100360000DC088E60BC082E709C084E607C084E2BE
:1003700005C089E703C080E201C080E611968C9336
:100380000895DF92EF92FF920F931F93CF93DF9325
:100390007B018A01E901EBE4FDE13197F1F700C04F
:1003A00000009C9BFECFEBE4FDE13197F1F700C02C
:1003B0000000FC0110828FEF8A838B8389B78F7BCB
:1003C00089BF9C9B25C09D99FCCF9D99FACFD12CCC
:1003D0008BE49DE10197F1F700C000009D9B07C0F1
:1003E000C80144DFBE01F80180818BDFEACFD394DE
:1003F000FAE0FD1568F7C80139DFBE01F801808118
:1004000080DF83EE97E50197F1F700C00000E0CFB1
:10041000EBE4FDE13197F1F700C000009C9BFECFBB
:100420008BE49DE10197F1F700C00000BE01F701E8
:10043000808125DF8FEF888389839C9B25C09D99D0
:10044000FCCF9D99FACFD12C8BE49DE10197F1F778
:1004500000C000009D9B07C0C701FFDEBE01F70181
:1004600080810DDFEACFD394FAE0FD1568F7C7016C
:10047000F4DEBE01F701808102DF83EE97E501978C
:10048000F1F700C00000E0CFEBE4FDE13197F1F7B8
:1004900000C000009C9BFECF8BE49DE10197F1F72B
:1004A00000C0000089B7806489BFBE01F801808167
:1004B000DF91CF911F910F91FF90EF90DF9021CFAF
:1004C000AFDEB4DE609168007091690080916B00CE
:1004D000D6DE609168007091690080916A0011DF3A
:1004E00078949C99FECF20916800309169004091EA
:1004F000620050916300609164007091650080918A
:100500006600909167003DDFECCF991B79E004C055
:10051000991F961708F0961B881F7A95C9F7809542
:060520000895F894FFCFDE
:0C05260074006A006B006D0070000B2177
:00000001FF
