:2000000023C03DC03CC03BC0F6C039C038C037C036C0B2C034C033C032C031C030C02FC05A
:200020002EC02DC02CC05AC05BC05CC05DC05EC05FC060C061C062C063C064C065C066C059
:2000400067C068C069C06AC011241FBECFE5D4E0DEBFCDBF10E0A0E6B0E0E4E0F4E002C0FB
:2000600005900D92A236B107D9F720E0A2E6B0E001C01D92AD36B207E1F7AFD1C1C1C0CF5F
:20008000209162008DEC289F912D112496959695969590936700990F392F330F330F930FD9
:2000A000291B2093660090916000989F812D112486958695869580936500880F282F220F60
:2000C000220F820F981B90936400089590E08131910530F5FC01ED5EFF4F099481E2089577
:2000E0008BE7089588EA089588E6089582E7089584E6089584E2089589E7089580E20895BB
:2001000080E6089580E3089586E2089585EA08958AE2089584EA089584EB08958FEF089590
:2001200080E00895809160008F5F8C3318F4809360000CC010926000809162008F5F88313D
:2001400018F48093620002C01092620099DF80916400BCDF80936A0080916500B7DF809334
:20016000680080916600B2DF80936C0080916700ADDF8093690008951F920F920FB60F92BB
:2001800011248F9380916B00813071F028F0823099F08330C9F01FC08FEF82BBAB98A89A9C
:2001A00080916A0082BB17C08FEF82BBA898A99A8091680082BB0FC08FEF82BBA998AA9AAD
:2001C00080916C0082BB07C08FEF82BBAA98AB9A8091690082BB80916B008F5F843018F47B
:2001E00080936B0002C010926B008F910F900FBE0F901F9018951F920F920FB60F9211243E
:200200002F933F934F935F936F937F938F939F93AF93BF93CF93DF93EF93FF93809163001E
:200220008F5F80936300803F18F07CDF10926300809163008170C82F80E0D82FCC0FDD1F99
:20024000C295D295D07FDC27C07FDC2780916C00C827C0936C00FF91EF91DF91CF91BF91F1
:20026000AF919F918F917F916F915F914F913F912F910F900FBE0F901F9018958BE49DE12A
:200280000197F1F700C000009C9BFECF8BE49DE10197F1F700C0000081E089BF9C9B32C01B
:2002A0009D9918C08BE49DE10197F1F700C00000809162008F5F883119F08093620002C0A9
:2002C00010926200DDDE8FE493EC0197F1F700C0000006C08BE49DE10197F1F700C000003A
:2002E00080E1F4DE80936A008093680080916600EDDE80936C0080916700E8DE8093690058
:200300009C99CECF8BE49DE10197F1F700C000009C9908C08BE49DE10197F1F700C00000B4
:200320009C9BF8CF9C9B32C09D9918C08BE49DE10197F1F700C00000809160008F5F8C333D
:2003400018F48093600002C01092600099DE8FE493EC0197F1F700C0000006C08BE49DE1FE
:200360000197F1F700C0000080916400AFDE80936A0080916500AADE8093680080E1A6DE60
:2003800080936C00809369009C99CECF8BE49DE10197F1F700C000009C9908C087EA91E67E
:2003A0000197F1F700C000009C9BF8CF809164008DDE80936A008091650088DE809368004B
:2003C0008091660083DE80936C00809167007EDE8093690081E489BF08958FEC84BB8FEFF4
:2003E00081BB85BB81E083BF88E082BD83E085BD81E489BF97DE78949C99FECF3FDFFCCF79
:06040000F894FFCF350067
:00000001FF
